{
  "contractName": "Fundme",
  "abi": [
    {
      "anonymous": false,
      "inputs": [
        {
          "indexed": false,
          "internalType": "address",
          "name": "_wallet",
          "type": "address"
        },
        {
          "indexed": false,
          "internalType": "uint256",
          "name": "_value",
          "type": "uint256"
        }
      ],
      "name": "funded",
      "type": "event"
    },
    {
      "inputs": [
        {
          "internalType": "address",
          "name": "",
          "type": "address"
        }
      ],
      "name": "walletToFunds",
      "outputs": [
        {
          "internalType": "uint256",
          "name": "",
          "type": "uint256"
        }
      ],
      "stateMutability": "view",
      "type": "function",
      "constant": true
    },
    {
      "inputs": [],
      "name": "fund",
      "outputs": [],
      "stateMutability": "payable",
      "type": "function",
      "payable": true
    },
    {
      "inputs": [],
      "name": "refund",
      "outputs": [],
      "stateMutability": "nonpayable",
      "type": "function"
    },
    {
      "inputs": [],
      "name": "callerWalletBalance",
      "outputs": [
        {
          "internalType": "uint256",
          "name": "",
          "type": "uint256"
        }
      ],
      "stateMutability": "view",
      "type": "function",
      "constant": true
    },
    {
      "inputs": [],
      "name": "fundsRaised",
      "outputs": [
        {
          "internalType": "uint256",
          "name": "",
          "type": "uint256"
        }
      ],
      "stateMutability": "view",
      "type": "function",
      "constant": true
    }
  ],
  "bytecode": "0x608060405260008055670de0b6b3a764000060015534801561002057600080fd5b506105e1806100306000396000f3fe60806040526004361061004a5760003560e01c8063590e1ae31461004f5780636681b9fd146100665780636fbef2d114610091578063b60d4288146100f6578063edf304e814610100575b600080fd5b34801561005b57600080fd5b5061006461012b565b005b34801561007257600080fd5b5061007b6101e5565b6040518082815260200191505060405180910390f35b34801561009d57600080fd5b506100e0600480360360208110156100b457600080fd5b81019080803573ffffffffffffffffffffffffffffffffffffffff1690602001909291905050506101f8565b6040518082815260200191505060405180910390f35b6100fe610210565b005b34801561010c57600080fd5b5061011561047f565b6040518082815260200191505060405180910390f35b61013361049e565b60028190555060025460008082825403925050819055503373ffffffffffffffffffffffffffffffffffffffff166108fc6002549081150290604051600060405180830381858888f19350505050158015610192573d6000803e3d6000fd5b5060001515600460003373ffffffffffffffffffffffffffffffffffffffff1673ffffffffffffffffffffffffffffffffffffffff16815260200190815260200160002060009054906101000a90505050565b600060015447816101f257fe5b04905090565b60036020528060005260406000206000915090505481565b670de0b6b3a76400003373ffffffffffffffffffffffffffffffffffffffff163110156102a5576040517f08c379a000000000000000000000000000000000000000000000000000000000815260040180806020018281038252601d8152602001807f4e6f7420656e6f7567682045544820696e20796f75722077616c6c657400000081525060200191505060405180910390fd5b670de0b6b3a7640000341015610323576040517f08c379a00000000000000000000000000000000000000000000000000000000081526004018080602001828103825260178152602001807f4d696e696d756d20616d6f756e7420697320312045544800000000000000000081525060200191505060405180910390fd5b7fed7d0ddcc17abdb3935a0a23cd93e91b449dfeac7fd0def9f481ed5b37e18c4d3334604051808373ffffffffffffffffffffffffffffffffffffffff1681526020018281526020019250505060405180910390a134600080828254019250508190555034600360003373ffffffffffffffffffffffffffffffffffffffff1673ffffffffffffffffffffffffffffffffffffffff1681526020019081526020016000208190555060001515600460003373ffffffffffffffffffffffffffffffffffffffff1673ffffffffffffffffffffffffffffffffffffffff16815260200190815260200160002060009054906101000a900460ff161515141561047d576001600460003373ffffffffffffffffffffffffffffffffffffffff1673ffffffffffffffffffffffffffffffffffffffff16815260200190815260200160002060006101000a81548160ff0219169083151502179055505b565b60003373ffffffffffffffffffffffffffffffffffffffff1631905090565b600060011515600460003373ffffffffffffffffffffffffffffffffffffffff1673ffffffffffffffffffffffffffffffffffffffff16815260200190815260200160002060009054906101000a900460ff16151514610566576040517f08c379a00000000000000000000000000000000000000000000000000000000081526004018080602001828103825260178152602001807f596f7520617265206e6f74206f6e20746865206c69737400000000000000000081525060200191505060405180910390fd5b600360003373ffffffffffffffffffffffffffffffffffffffff1673ffffffffffffffffffffffffffffffffffffffff1681526020019081526020016000205490509056fea2646970667358221220877e9eb8c8bddabdd5016e1968e1129a6dd18440b5c344a95bd6f1354b1ff59264736f6c63430007000033",
  "immutableReferences": {},
  "source": "//SPDX-License-Identifier: MIT\r\n\r\npragma solidity >=0.7.0;\r\n\r\ncontract Fundme{\r\n    \r\n    uint256 totalFunds = 0; // initial funds in the contract\r\n    uint256 toether = 1000000000000000000; // convert to eth from wei\r\n    uint256 refundAmount; // amount to refund to the funder\r\n   \r\n    \r\n    mapping(address => uint256) public walletToFunds;   // user address to funds provided\r\n    mapping(address => bool) addressInList;             // is the user in the funders list\r\n    \r\n    event funded(address _wallet, uint256 _value);\r\n    \r\n    \r\n    function fund() public payable {\r\n        require(msg.sender.balance >= 1 ether, \"Not enough ETH in your wallet\");\r\n        require(msg.value >= 1 ether, \"Minimum amount is 1 ETH\");\r\n        \r\n        emit funded(msg.sender, msg.value);\r\n        \r\n        totalFunds += msg.value;\r\n        \r\n        walletToFunds[msg.sender] = msg.value;\r\n        \r\n        // add funder's address if not already in list\r\n        if(addressInList[msg.sender] == false){\r\n            addressInList[msg.sender] = true;\r\n        }\r\n        \r\n    }\r\n    \r\n    \r\n    function refund() public {\r\n        refundAmount = getFunder();\r\n        totalFunds -= refundAmount;\r\n        msg.sender.transfer(refundAmount);\r\n        addressInList[msg.sender] == false;\r\n\r\n    }\r\n\r\n    function getFunder() private view returns (uint256){\r\n        require(addressInList[msg.sender] == true, 'You are not on the list');\r\n        return walletToFunds[msg.sender]; // returns key's value \r\n    }\r\n    \r\n\r\n\r\n    // These functions do not create a transaction nor change states \r\n    \r\n        // wallet balance of the wallet who called the contract\r\n    function callerWalletBalance()public view returns (uint256){ \r\n        return msg.sender.balance;\r\n    }\r\n    \r\n        // Amount of funds in the contract\r\n    function fundsRaised() public view returns (uint256){\r\n        return address(this).balance / toether;\r\n    }\r\n    \r\n}\r\n",
  "sourcePath": "C:\\Users\\Misirov\\Desktop\\fund-me\\contracts\\fundme.sol",
  "compiler": {
    "name": "solc",
    "version": "0.7.0+commit.9e61f92b.Emscripten.clang"
  },
  "schemaVersion": "3.4.3",
  "updatedAt": "2021-10-02T14:25:47.621Z",
  "networkType": "ethereum",
  "devdoc": {
    "kind": "dev",
    "methods": {},
    "version": 1
  },
  "userdoc": {
    "kind": "user",
    "methods": {},
    "version": 1
  }
}